{
  "contractName": "WasteWaterRecyclingCertificates",
  "abi": [
    {
      "constant": true,
      "inputs": [],
      "name": "name",
      "outputs": [
        {
          "name": "",
          "type": "string"
        }
      ],
      "payable": false,
      "stateMutability": "view",
      "type": "function"
    },
    {
      "constant": true,
      "inputs": [],
      "name": "totalShareholders",
      "outputs": [
        {
          "name": "",
          "type": "uint256"
        }
      ],
      "payable": false,
      "stateMutability": "view",
      "type": "function"
    },
    {
      "constant": true,
      "inputs": [],
      "name": "reward",
      "outputs": [
        {
          "name": "",
          "type": "uint256"
        }
      ],
      "payable": false,
      "stateMutability": "view",
      "type": "function"
    },
    {
      "constant": true,
      "inputs": [],
      "name": "unused_supply",
      "outputs": [
        {
          "name": "",
          "type": "uint256"
        }
      ],
      "payable": false,
      "stateMutability": "view",
      "type": "function"
    },
    {
      "constant": true,
      "inputs": [],
      "name": "decimals",
      "outputs": [
        {
          "name": "",
          "type": "uint256"
        }
      ],
      "payable": false,
      "stateMutability": "view",
      "type": "function"
    },
    {
      "constant": true,
      "inputs": [],
      "name": "timeOfLastHalf",
      "outputs": [
        {
          "name": "",
          "type": "uint256"
        }
      ],
      "payable": false,
      "stateMutability": "view",
      "type": "function"
    },
    {
      "constant": true,
      "inputs": [],
      "name": "timeOfLastIncrement",
      "outputs": [
        {
          "name": "",
          "type": "uint256"
        }
      ],
      "payable": false,
      "stateMutability": "view",
      "type": "function"
    },
    {
      "constant": false,
      "inputs": [
        {
          "name": "_spender",
          "type": "address"
        },
        {
          "name": "_subtractedValue",
          "type": "uint256"
        }
      ],
      "name": "decreaseApproval",
      "outputs": [
        {
          "name": "",
          "type": "bool"
        }
      ],
      "payable": false,
      "stateMutability": "nonpayable",
      "type": "function"
    },
    {
      "constant": true,
      "inputs": [
        {
          "name": "",
          "type": "address"
        }
      ],
      "name": "__percentReuse",
      "outputs": [
        {
          "name": "",
          "type": "uint256"
        }
      ],
      "payable": false,
      "stateMutability": "view",
      "type": "function"
    },
    {
      "constant": true,
      "inputs": [],
      "name": "tokenPrice",
      "outputs": [
        {
          "name": "",
          "type": "uint256"
        }
      ],
      "payable": false,
      "stateMutability": "view",
      "type": "function"
    },
    {
      "constant": true,
      "inputs": [],
      "name": "owner",
      "outputs": [
        {
          "name": "",
          "type": "address"
        }
      ],
      "payable": false,
      "stateMutability": "view",
      "type": "function"
    },
    {
      "constant": true,
      "inputs": [],
      "name": "stockprice",
      "outputs": [
        {
          "name": "",
          "type": "uint256"
        }
      ],
      "payable": false,
      "stateMutability": "view",
      "type": "function"
    },
    {
      "constant": true,
      "inputs": [],
      "name": "symbol",
      "outputs": [
        {
          "name": "",
          "type": "string"
        }
      ],
      "payable": false,
      "stateMutability": "view",
      "type": "function"
    },
    {
      "constant": true,
      "inputs": [],
      "name": "shareholdersBalance",
      "outputs": [
        {
          "name": "",
          "type": "uint256"
        }
      ],
      "payable": false,
      "stateMutability": "view",
      "type": "function"
    },
    {
      "constant": true,
      "inputs": [],
      "name": "usable_supply",
      "outputs": [
        {
          "name": "",
          "type": "uint256"
        }
      ],
      "payable": false,
      "stateMutability": "view",
      "type": "function"
    },
    {
      "constant": false,
      "inputs": [
        {
          "name": "_spender",
          "type": "address"
        },
        {
          "name": "_addedValue",
          "type": "uint256"
        }
      ],
      "name": "increaseApproval",
      "outputs": [
        {
          "name": "",
          "type": "bool"
        }
      ],
      "payable": false,
      "stateMutability": "nonpayable",
      "type": "function"
    },
    {
      "constant": true,
      "inputs": [],
      "name": "spread_supply",
      "outputs": [
        {
          "name": "",
          "type": "uint256"
        }
      ],
      "payable": false,
      "stateMutability": "view",
      "type": "function"
    },
    {
      "inputs": [],
      "payable": true,
      "stateMutability": "payable",
      "type": "constructor"
    },
    {
      "anonymous": false,
      "inputs": [
        {
          "indexed": true,
          "name": "from",
          "type": "address"
        },
        {
          "indexed": false,
          "name": "value",
          "type": "uint256"
        }
      ],
      "name": "Mint",
      "type": "event"
    },
    {
      "anonymous": false,
      "inputs": [
        {
          "indexed": true,
          "name": "from",
          "type": "address"
        },
        {
          "indexed": true,
          "name": "to",
          "type": "address"
        },
        {
          "indexed": false,
          "name": "value",
          "type": "uint256"
        }
      ],
      "name": "Transfer",
      "type": "event"
    },
    {
      "anonymous": false,
      "inputs": [
        {
          "indexed": true,
          "name": "owner",
          "type": "address"
        },
        {
          "indexed": true,
          "name": "spender",
          "type": "address"
        },
        {
          "indexed": false,
          "name": "value",
          "type": "uint256"
        }
      ],
      "name": "Approval",
      "type": "event"
    },
    {
      "constant": true,
      "inputs": [
        {
          "name": "_addr",
          "type": "address"
        }
      ],
      "name": "balanceOf",
      "outputs": [
        {
          "name": "balance",
          "type": "uint256"
        }
      ],
      "payable": false,
      "stateMutability": "view",
      "type": "function"
    },
    {
      "constant": false,
      "inputs": [],
      "name": "IssueWRC",
      "outputs": [],
      "payable": true,
      "stateMutability": "payable",
      "type": "function"
    },
    {
      "constant": false,
      "inputs": [
        {
          "name": "_to",
          "type": "address"
        },
        {
          "name": "_amount",
          "type": "uint256"
        }
      ],
      "name": "withdraw",
      "outputs": [
        {
          "name": "",
          "type": "bool"
        }
      ],
      "payable": true,
      "stateMutability": "payable",
      "type": "function"
    },
    {
      "constant": true,
      "inputs": [],
      "name": "totalSupply",
      "outputs": [
        {
          "name": "_totalSupply",
          "type": "uint256"
        }
      ],
      "payable": false,
      "stateMutability": "view",
      "type": "function"
    },
    {
      "constant": false,
      "inputs": [
        {
          "name": "_to",
          "type": "address"
        },
        {
          "name": "_value",
          "type": "uint256"
        }
      ],
      "name": "transfer",
      "outputs": [
        {
          "name": "",
          "type": "bool"
        }
      ],
      "payable": false,
      "stateMutability": "nonpayable",
      "type": "function"
    },
    {
      "constant": false,
      "inputs": [
        {
          "name": "_to",
          "type": "address"
        },
        {
          "name": "_value",
          "type": "uint256"
        },
        {
          "name": "_percentReuse",
          "type": "uint256"
        }
      ],
      "name": "transferWithPercentReuse",
      "outputs": [],
      "payable": false,
      "stateMutability": "nonpayable",
      "type": "function"
    },
    {
      "constant": false,
      "inputs": [
        {
          "name": "_from",
          "type": "address"
        },
        {
          "name": "_to",
          "type": "address"
        },
        {
          "name": "_value",
          "type": "uint256"
        }
      ],
      "name": "transferFrom",
      "outputs": [
        {
          "name": "success",
          "type": "bool"
        }
      ],
      "payable": false,
      "stateMutability": "nonpayable",
      "type": "function"
    },
    {
      "constant": false,
      "inputs": [
        {
          "name": "_spender",
          "type": "address"
        },
        {
          "name": "_value",
          "type": "uint256"
        }
      ],
      "name": "approve",
      "outputs": [
        {
          "name": "success",
          "type": "bool"
        }
      ],
      "payable": false,
      "stateMutability": "nonpayable",
      "type": "function"
    },
    {
      "constant": true,
      "inputs": [
        {
          "name": "_owner",
          "type": "address"
        },
        {
          "name": "_spender",
          "type": "address"
        }
      ],
      "name": "allowance",
      "outputs": [
        {
          "name": "remaining",
          "type": "uint256"
        }
      ],
      "payable": false,
      "stateMutability": "view",
      "type": "function"
    },
    {
      "constant": false,
      "inputs": [],
      "name": "payDividends",
      "outputs": [
        {
          "name": "",
          "type": "uint256"
        }
      ],
      "payable": true,
      "stateMutability": "payable",
      "type": "function"
    }
  ],
  "bytecode": "0x60806040526000600355600060045560006005556012600a0a6207a12002600655426007554260085533600b60006101000a81548173ffffffffffffffffffffffffffffffffffffffff021916908373ffffffffffffffffffffffffffffffffffffffff160217905550426007819055506a027b46536c66c8e30000006002819055506002546000803373ffffffffffffffffffffffffffffffffffffffff1673ffffffffffffffffffffffffffffffffffffffff16815260200190815260200160002081905550612010806100d66000396000f3fe60806040526004361061015f576000357c0100000000000000000000000000000000000000000000000000000000900463ffffffff16806306fdde0314610164578063095ea7b3146101f45780630f8d40301461026757806318160ddd14610292578063228cb733146102bd57806323b872dd146102e8578063300bc9731461037b578063313ce567146103a657806334ede529146103d15780635d6874dc14610436578063652a38ba14610461578063661884631461048c57806368636d43146104ff57806370a08231146105095780637b9d58ff1461056e5780637ff9b596146105d35780638da5cb5b146105fe5780639047e9061461065557806395d89b411461068057806397a629aa14610710578063a1d1762d1461073b578063a9059cbb14610766578063d73dd623146107d9578063dd62ed3e1461084c578063de88a342146108d1578063ebfebbd0146108ef578063f3fef3a31461091a575b600080fd5b34801561017057600080fd5b50610179610980565b6040518080602001828103825283818151815260200191508051906020019080838360005b838110156101b957808201518184015260208101905061019e565b50505050905090810190601f1680156101e65780820380516001836020036101000a031916815260200191505b509250505060405180910390f35b34801561020057600080fd5b5061024d6004803603604081101561021757600080fd5b81019080803573ffffffffffffffffffffffffffffffffffffffff169060200190929190803590602001909291905050506109b9565b604051808215151515815260200191505060405180910390f35b34801561027357600080fd5b5061027c610a46565b6040518082815260200191505060405180910390f35b34801561029e57600080fd5b506102a7610a4c565b6040518082815260200191505060405180910390f35b3480156102c957600080fd5b506102d2610a69565b6040518082815260200191505060405180910390f35b3480156102f457600080fd5b506103616004803603606081101561030b57600080fd5b81019080803573ffffffffffffffffffffffffffffffffffffffff169060200190929190803573ffffffffffffffffffffffffffffffffffffffff16906020019092919080359060200190929190505050610a6f565b604051808215151515815260200191505060405180910390f35b34801561038757600080fd5b50610390610e00565b6040518082815260200191505060405180910390f35b3480156103b257600080fd5b506103bb610e06565b6040518082815260200191505060405180910390f35b3480156103dd57600080fd5b50610434600480360360608110156103f457600080fd5b81019080803573ffffffffffffffffffffffffffffffffffffffff1690602001909291908035906020019092919080359060200190929190505050610e0b565b005b34801561044257600080fd5b5061044b61118c565b6040518082815260200191505060405180910390f35b34801561046d57600080fd5b50610476611192565b6040518082815260200191505060405180910390f35b34801561049857600080fd5b506104e5600480360360408110156104af57600080fd5b81019080803573ffffffffffffffffffffffffffffffffffffffff16906020019092919080359060200190929190505050611198565b604051808215151515815260200191505060405180910390f35b61050761142a565b005b34801561051557600080fd5b506105586004803603602081101561052c57600080fd5b81019080803573ffffffffffffffffffffffffffffffffffffffff169060200190929190505050611597565b6040518082815260200191505060405180910390f35b34801561057a57600080fd5b506105bd6004803603602081101561059157600080fd5b81019080803573ffffffffffffffffffffffffffffffffffffffff1690602001909291905050506115df565b6040518082815260200191505060405180910390f35b3480156105df57600080fd5b506105e86115f7565b6040518082815260200191505060405180910390f35b34801561060a57600080fd5b50610613611603565b604051808273ffffffffffffffffffffffffffffffffffffffff1673ffffffffffffffffffffffffffffffffffffffff16815260200191505060405180910390f35b34801561066157600080fd5b5061066a611629565b6040518082815260200191505060405180910390f35b34801561068c57600080fd5b5061069561162f565b6040518080602001828103825283818151815260200191508051906020019080838360005b838110156106d55780820151818401526020810190506106ba565b50505050905090810190601f1680156107025780820380516001836020036101000a031916815260200191505b509250505060405180910390f35b34801561071c57600080fd5b50610725611668565b6040518082815260200191505060405180910390f35b34801561074757600080fd5b5061075061166e565b6040518082815260200191505060405180910390f35b34801561077257600080fd5b506107bf6004803603604081101561078957600080fd5b81019080803573ffffffffffffffffffffffffffffffffffffffff16906020019092919080359060200190929190505050611674565b604051808215151515815260200191505060405180910390f35b3480156107e557600080fd5b50610832600480360360408110156107fc57600080fd5b81019080803573ffffffffffffffffffffffffffffffffffffffff1690602001909291908035906020019092919050505061167c565b604051808215151515815260200191505060405180910390f35b34801561085857600080fd5b506108bb6004803603604081101561086f57600080fd5b81019080803573ffffffffffffffffffffffffffffffffffffffff169060200190929190803573ffffffffffffffffffffffffffffffffffffffff169060200190929190505050611878565b6040518082815260200191505060405180910390f35b6108d96118ff565b6040518082815260200191505060405180910390f35b3480156108fb57600080fd5b50610904611b0c565b6040518082815260200191505060405180910390f35b6109666004803603604081101561093057600080fd5b81019080803573ffffffffffffffffffffffffffffffffffffffff16906020019092919080359060200190929190505050611b12565b604051808215151515815260200191505060405180910390f35b6040805190810160405280601f81526020017f5761737465576174657252656379636c696e674365727469666963617465730081525081565b600081600960003373ffffffffffffffffffffffffffffffffffffffff1673ffffffffffffffffffffffffffffffffffffffff16815260200190815260200160002060008573ffffffffffffffffffffffffffffffffffffffff1673ffffffffffffffffffffffffffffffffffffffff168152602001908152602001600020819055506001905092915050565b600d5481565b6000670de0b6b3a7640000600254811515610a6357fe5b04905090565b60065481565b60003373ffffffffffffffffffffffffffffffffffffffff168473ffffffffffffffffffffffffffffffffffffffff16141515610aab57600080fd5b60008060008673ffffffffffffffffffffffffffffffffffffffff1673ffffffffffffffffffffffffffffffffffffffff16815260200190815260200160002054111515610af857600080fd5b6000600960008673ffffffffffffffffffffffffffffffffffffffff1673ffffffffffffffffffffffffffffffffffffffff16815260200190815260200160002060003373ffffffffffffffffffffffffffffffffffffffff1673ffffffffffffffffffffffffffffffffffffffff16815260200190815260200160002054118015610b845750600082115b8015610c0c575081600960008673ffffffffffffffffffffffffffffffffffffffff1673ffffffffffffffffffffffffffffffffffffffff16815260200190815260200160002060003373ffffffffffffffffffffffffffffffffffffffff1673ffffffffffffffffffffffffffffffffffffffff1681526020019081526020016000205410155b8015610c565750816000808673ffffffffffffffffffffffffffffffffffffffff1673ffffffffffffffffffffffffffffffffffffffff1681526020019081526020016000205410155b15610df457816000808673ffffffffffffffffffffffffffffffffffffffff1673ffffffffffffffffffffffffffffffffffffffff16815260200190815260200160002060008282540392505081905550816000808573ffffffffffffffffffffffffffffffffffffffff1673ffffffffffffffffffffffffffffffffffffffff1681526020019081526020016000206000828254019250508190555081600960008673ffffffffffffffffffffffffffffffffffffffff1673ffffffffffffffffffffffffffffffffffffffff16815260200190815260200160002060003373ffffffffffffffffffffffffffffffffffffffff1673ffffffffffffffffffffffffffffffffffffffff16815260200190815260200160002060008282540392505081905550610d85611d5d565b508273ffffffffffffffffffffffffffffffffffffffff168473ffffffffffffffffffffffffffffffffffffffff167fddf252ad1be2c89b69c2b068fc378daa952ba7f163c4a11628f55a4df523b3ef846040518082815260200191505060405180910390a360019050610df9565b600090505b9392505050565b60035481565b601281565b6000808473ffffffffffffffffffffffffffffffffffffffff1673ffffffffffffffffffffffffffffffffffffffff16815260200190815260200160002054826000808673ffffffffffffffffffffffffffffffffffffffff1673ffffffffffffffffffffffffffffffffffffffff168152602001908152602001600020540110151515610e9857600080fd5b816000803373ffffffffffffffffffffffffffffffffffffffff1673ffffffffffffffffffffffffffffffffffffffff16815260200190815260200160002060008282540392505081905550816000808573ffffffffffffffffffffffffffffffffffffffff1673ffffffffffffffffffffffffffffffffffffffff16815260200190815260200160002060008282540192505081905550610f38611d5d565b50600b60009054906101000a900473ffffffffffffffffffffffffffffffffffffffff1673ffffffffffffffffffffffffffffffffffffffff163373ffffffffffffffffffffffffffffffffffffffff16148015610fe45750600b60009054906101000a900473ffffffffffffffffffffffffffffffffffffffff1673ffffffffffffffffffffffffffffffffffffffff168373ffffffffffffffffffffffffffffffffffffffff1614155b15610ffa5781600c600082825401925050819055505b600b60009054906101000a900473ffffffffffffffffffffffffffffffffffffffff1673ffffffffffffffffffffffffffffffffffffffff163373ffffffffffffffffffffffffffffffffffffffff16141580156110a55750600b60009054906101000a900473ffffffffffffffffffffffffffffffffffffffff1673ffffffffffffffffffffffffffffffffffffffff168373ffffffffffffffffffffffffffffffffffffffff16145b156110bb5781600c600082825403925050819055505b8273ffffffffffffffffffffffffffffffffffffffff16600b60009054906101000a900473ffffffffffffffffffffffffffffffffffffffff1673ffffffffffffffffffffffffffffffffffffffff16141561111657611122565b6111208382611df7565b505b8273ffffffffffffffffffffffffffffffffffffffff163373ffffffffffffffffffffffffffffffffffffffff167fddf252ad1be2c89b69c2b068fc378daa952ba7f163c4a11628f55a4df523b3ef846040518082815260200191505060405180910390a3505050565b60075481565b60085481565b600080600160003373ffffffffffffffffffffffffffffffffffffffff1673ffffffffffffffffffffffffffffffffffffffff16815260200190815260200160002060008573ffffffffffffffffffffffffffffffffffffffff1673ffffffffffffffffffffffffffffffffffffffff16815260200190815260200160002054905080831015156112aa576000600160003373ffffffffffffffffffffffffffffffffffffffff1673ffffffffffffffffffffffffffffffffffffffff16815260200190815260200160002060008673ffffffffffffffffffffffffffffffffffffffff1673ffffffffffffffffffffffffffffffffffffffff1681526020019081526020016000208190555061133e565b6112bd8382611fa190919063ffffffff16565b600160003373ffffffffffffffffffffffffffffffffffffffff1673ffffffffffffffffffffffffffffffffffffffff16815260200190815260200160002060008673ffffffffffffffffffffffffffffffffffffffff1673ffffffffffffffffffffffffffffffffffffffff168152602001908152602001600020819055505b8373ffffffffffffffffffffffffffffffffffffffff163373ffffffffffffffffffffffffffffffffffffffff167f8c5be1e5ebec7d5bd14f71427d1e84f3dd0314c0f7b2291e5b200ac8c7c3b925600160003373ffffffffffffffffffffffffffffffffffffffff1673ffffffffffffffffffffffffffffffffffffffff16815260200190815260200160002060008873ffffffffffffffffffffffffffffffffffffffff1673ffffffffffffffffffffffffffffffffffffffff168152602001908152602001600020546040518082815260200191505060405180910390a3600191505092915050565b600067016345785d8a00003481151561143f57fe5b0490506012600a0a81029050611453611d5d565b5060035481600354031115151561146957600080fd5b80600360008282540392505081905550806000803373ffffffffffffffffffffffffffffffffffffffff1673ffffffffffffffffffffffffffffffffffffffff16815260200190815260200160002060008282540192505081905550806002600082825401925050819055506114dd611d5d565b503373ffffffffffffffffffffffffffffffffffffffff167f0f6798a560793a54c3bcfe86a93cde1e73087d944c0ea20544137d4121396885826040518082815260200191505060405180910390a2600b60009054906101000a900473ffffffffffffffffffffffffffffffffffffffff1673ffffffffffffffffffffffffffffffffffffffff163373ffffffffffffffffffffffffffffffffffffffff161415156115945780600c600082825401925050819055505b50565b60008060008373ffffffffffffffffffffffffffffffffffffffff1673ffffffffffffffffffffffffffffffffffffffff168152602001908152602001600020549050919050565b600a6020528060005260406000206000915090505481565b67016345785d8a000081565b600b60009054906101000a900473ffffffffffffffffffffffffffffffffffffffff1681565b60105481565b6040805190810160405280600381526020017f575243000000000000000000000000000000000000000000000000000000000081525081565b600c5481565b60045481565b600092915050565b600061170d82600160003373ffffffffffffffffffffffffffffffffffffffff1673ffffffffffffffffffffffffffffffffffffffff16815260200190815260200160002060008673ffffffffffffffffffffffffffffffffffffffff1673ffffffffffffffffffffffffffffffffffffffff16815260200190815260200160002054611fc390919063ffffffff16565b600160003373ffffffffffffffffffffffffffffffffffffffff1673ffffffffffffffffffffffffffffffffffffffff16815260200190815260200160002060008573ffffffffffffffffffffffffffffffffffffffff1673ffffffffffffffffffffffffffffffffffffffff168152602001908152602001600020819055508273ffffffffffffffffffffffffffffffffffffffff163373ffffffffffffffffffffffffffffffffffffffff167f8c5be1e5ebec7d5bd14f71427d1e84f3dd0314c0f7b2291e5b200ac8c7c3b925600160003373ffffffffffffffffffffffffffffffffffffffff1673ffffffffffffffffffffffffffffffffffffffff16815260200190815260200160002060008773ffffffffffffffffffffffffffffffffffffffff1673ffffffffffffffffffffffffffffffffffffffff168152602001908152602001600020546040518082815260200191505060405180910390a36001905092915050565b6000600960008473ffffffffffffffffffffffffffffffffffffffff1673ffffffffffffffffffffffffffffffffffffffff16815260200190815260200160002060008373ffffffffffffffffffffffffffffffffffffffff1673ffffffffffffffffffffffffffffffffffffffff16815260200190815260200160002054905092915050565b6000600b60009054906101000a900473ffffffffffffffffffffffffffffffffffffffff1673ffffffffffffffffffffffffffffffffffffffff163373ffffffffffffffffffffffffffffffffffffffff1614151561195d57600080fd5b6000600d541115611b08576000600190505b600d5481111515611afd576000600a6000600f600085815260200190815260200160002060009054906101000a900473ffffffffffffffffffffffffffffffffffffffff1673ffffffffffffffffffffffffffffffffffffffff1673ffffffffffffffffffffffffffffffffffffffff1681526020019081526020016000205490506000806000600f600086815260200190815260200160002060009054906101000a900473ffffffffffffffffffffffffffffffffffffffff1673ffffffffffffffffffffffffffffffffffffffff1673ffffffffffffffffffffffffffffffffffffffff168152602001908152602001600020549050602382118015611a775750600081115b15611aee57600c54670de0b6b3a76400008267016345785d8a000002811515611a9c57fe5b04811515611aa657fe5b04601081905550611aed600f600085815260200190815260200160002060009054906101000a900473ffffffffffffffffffffffffffffffffffffffff1660105484610e0b565b5b5050808060010191505061196f565b506010549050611b09565b5b90565b60055481565b60008273ffffffffffffffffffffffffffffffffffffffff163373ffffffffffffffffffffffffffffffffffffffff16141515611b4e57600080fd5b6000670de0b6b3a764000083029050806000808673ffffffffffffffffffffffffffffffffffffffff1673ffffffffffffffffffffffffffffffffffffffff1681526020019081526020016000205410151515611baa57600080fd5b6000808573ffffffffffffffffffffffffffffffffffffffff1673ffffffffffffffffffffffffffffffffffffffff16815260200190815260200160002054816000808773ffffffffffffffffffffffffffffffffffffffff1673ffffffffffffffffffffffffffffffffffffffff168152602001908152602001600020540311151515611c3757600080fd5b806000808673ffffffffffffffffffffffffffffffffffffffff1673ffffffffffffffffffffffffffffffffffffffff1681526020019081526020016000206000828254039250508190555080600360008282540192505081905550620f424034029050600067016345785d8a0000840290508473ffffffffffffffffffffffffffffffffffffffff166108fc829081150290604051600060405180830381858888f1935050505050611ce8611d5d565b50600b60009054906101000a900473ffffffffffffffffffffffffffffffffffffffff1673ffffffffffffffffffffffffffffffffffffffff163373ffffffffffffffffffffffffffffffffffffffff16141515611d515781600c600082825403925050819055505b60019250505092915050565b60006307829b806007544203101515611d9257600260066000828254811515611d8257fe5b0492505081905550426007819055505b60966008544203101515611de257600060065460966008544203811515611db557fe5b04029050806004600082825401925050819055508060036000828254019250508190555042600881905550505b60035460045403600581905550600554905090565b600060011515600e60008573ffffffffffffffffffffffffffffffffffffffff1673ffffffffffffffffffffffffffffffffffffffff16815260200190815260200160002060009054906101000a900460ff1615151415611e5757611f96565b6001600d6000828254019250508190555082600f6000600d54815260200190815260200160002060006101000a81548173ffffffffffffffffffffffffffffffffffffffff021916908373ffffffffffffffffffffffffffffffffffffffff16021790555081600a6000600f6000600d54815260200190815260200160002060009054906101000a900473ffffffffffffffffffffffffffffffffffffffff1673ffffffffffffffffffffffffffffffffffffffff1673ffffffffffffffffffffffffffffffffffffffff168152602001908152602001600020819055506001600e60008573ffffffffffffffffffffffffffffffffffffffff1673ffffffffffffffffffffffffffffffffffffffff16815260200190815260200160002060006101000a81548160ff02191690831515021790555060019050611f9b565b600090505b92915050565b6000828211151515611fb257600080fd5b600082840390508091505092915050565b6000808284019050838110151515611fda57600080fd5b809150509291505056fea165627a7a723058203d7997f7c4ffc816ff9e83c0f8685614e234214b300252d9ed9a2454c400ca350029",
  "source": "pragma solidity ^0.5.0;\nimport './StandardToken.sol'; \n\ncontract WasteWaterRecyclingCertificates is StandardToken {\n    string public constant symbol = \"WRC\";\n    string public constant name = \"WasteWaterRecyclingCertificates\";\n    uint256 public constant decimals = 18;\n    uint256 public constant tokenPrice = 10**17;\n    // uint256 internal totalSupply_ = 3000000 * 10**18;\n    uint256 public unused_supply = 0;\n    uint256 public usable_supply = 0;\n    uint256 public spread_supply = 0;\n    uint256 public reward = 500000 * 10**decimals;\n    uint256 public timeOfLastHalf = now;\n    uint public timeOfLastIncrement = now;\n    // mapping (address => uint256) internal balances;\n    mapping (address => mapping (address => uint)) private __allowances;\n    mapping (address => uint) public __percentReuse;\n    address payable public owner;\n    uint private constant RegulatorTarget=35 ;\n    // event Transfer(address indexed from, address indexed to, uint256 value);\n    event Mint(address indexed from, uint256 value);\n    uint256 public shareholdersBalance;\n    uint public totalShareholders;\n    mapping (address => bool) registeredShareholders;\n    mapping (uint => address) shareholders;\n   \n    /* At the time of contract deployment first function to be called is Owned()*/\n   \n    \n    // function Owned() public returns (address) {\n        \n    //     return (owner);\n    // }\n\n    \n    modifier onlyOwner {\n        require(msg.sender == owner) ;\n        _;\n    }\n    constructor() payable public {\n        owner = msg.sender;\n        timeOfLastHalf = now;  \n        totalSupply_ = 3000000 * 10**18;\n        balances[msg.sender] = totalSupply_;\n    }\n    \n  \n    function updateSupplyforRegulator() internal returns (uint256) {\n\n      if (now - timeOfLastHalf >= 2100000 minutes) {\n        reward /= 2;\n        timeOfLastHalf = now;\n      }\n\n      if (now - timeOfLastIncrement >= 150 seconds) {\n        uint256 increaseAmount = ((now -timeOfLastIncrement) / 150 seconds) * reward;\n        usable_supply += increaseAmount;\n        unused_supply += increaseAmount;\n        timeOfLastIncrement = now;\n      }\n\n\n      spread_supply = usable_supply - unused_supply;\n      \n      return spread_supply;\n    }\n\n      \n    function balanceOf(address _addr) public view returns (uint balance) {\n        return balances[_addr];\n    }\n\n     /*  minting the WRC currency  */   \n     function IssueWRC() public payable {\n        uint256 _value;\n         _value = (msg.value)/ tokenPrice; //conversion\n         _value = _value * 10 ** decimals;\n        // require(balances[msg.sender] + _value >= balances[msg.sender]); // Check for overflows\n        \n        updateSupplyforRegulator();\n\n        require(unused_supply - _value <= unused_supply);\n        unused_supply -= _value; // Remove from unused supply\n        balances[msg.sender] += _value; // Add the same to the recipient\n        totalSupply_ += _value;\n        updateSupplyforRegulator();\n        emit Mint(msg.sender, _value);\n\n       if (msg.sender != owner) {\n            shareholdersBalance += _value;\n       }\n        \n     }\n     \n  \n    function withdraw(address payable _to, uint _amount) public payable returns (bool) {\n\n        //user can withdraw his tokens only\n        require(msg.sender == _to);\n\n         uint256 amountToWithdraw = _amount * 10**18;\n        // Balance given in WRC\n\n        require(balances[_to] >= amountToWithdraw);\n        require(balances[_to] - amountToWithdraw <= balances[_to]);\n\n        // Balance checked in WRC, then converted into Wei\n        balances[_to] -= amountToWithdraw;\n\n        // Added back to supply in WRC\n        unused_supply +=amountToWithdraw;\n        // Converted into Wei\n        amountToWithdraw =msg.value* 1000000;\n\n        uint ethValue = _amount * tokenPrice;\n\n        _to.send(ethValue); \n        // Transfered in Wei\n        // transferFrom(msg.sender,_to,amountToWithdraw);\n        \n        updateSupplyforRegulator();\n        \n       if (msg.sender != owner) {\n            shareholdersBalance -= amountToWithdraw;\n       }\n        \n\n        return true;\n    }\n\n\n   \n    function totalSupply() public view returns (uint _totalSupply) {\n        _totalSupply = totalSupply_ / 10**18;\n        \n        \n    }\n\n    function transfer(address _to,uint  _value) public returns(bool) {\n\n    }\n\n    function transferWithPercentReuse(address _to, uint256 _value , uint _percentReuse ) public  {\n        \n        require(balances[_to] + _value >= balances[_to]); // Check for overflows\n        balances[msg.sender] -= _value;                    // Subtract from the sender\n        balances[_to] += _value;                           // Add the same to the recipient\n\n        updateSupplyforRegulator();\n         /* Adding to shareholders count if tokens spent from owner to others */\n        if (msg.sender == owner && _to != owner) {\n            shareholdersBalance += _value;\n        }\n        /* Remove from shareholders count if tokens spent from holder to owner */\n        if (msg.sender != owner && _to == owner) {\n            shareholdersBalance -= _value;\n        }\n\n        if (owner == _to) {\n            // sender is owner\n        } else {\n            CalculatingTotalShareholders(_to,_percentReuse);\n        }\n\n\n        /* Notify anyone listening that the transfer took place */\n        emit Transfer(msg.sender, _to, _value);\n\n        \n    }\n    /**\n     * only for the already registered participant organizations\n     */\n    function transferFrom(address _from, address _to, uint _value) public returns (bool success) {\n        require(_from == msg.sender);\n        require(balances[_from] > 0);\n        if (__allowances[_from][msg.sender] > 0 &&\n            _value > 0 &&\n            __allowances[_from][msg.sender] >= _value && \n            balances[_from] >= _value) {\n            balances[_from] -= _value;\n            balances[_to] += _value;\n            \n            __allowances[_from][msg.sender] -= _value;\n            \n            updateSupplyforRegulator();\n       \n            /* Notify anyone listening that the transfer took place */\n            emit Transfer(_from, _to, _value);\n            return true;\n        \n        }\n        return false;\n    }\n    \n    function approve(address _spender, uint _value) public returns (bool success) {\n        __allowances[msg.sender][_spender] = _value;\n        return true;\n    }\n    \n    function allowance(address _owner, address _spender) public view returns (uint remaining) {\n        return __allowances[_owner][_spender];\n   }\n   \n \n\n    function CalculatingTotalShareholders( address _shareholder ,uint _percentReuse) internal returns (bool) {\n      \n        if (registeredShareholders[_shareholder] == true) {\n\n        } else { \n            totalShareholders += 1;\n            shareholders[totalShareholders] = _shareholder;\n            __percentReuse[shareholders[totalShareholders]]=_percentReuse;     \n            registeredShareholders[_shareholder] = true;\n            return true;\n        }\n        return false;\n    }\n    \n    /**\n     * stock variant it varies according to the no of overachieved organisations\n     * overachieved organisations : _percentReuse>RegulatorTarget\n     */\n    uint256 public stockprice;\n    function payDividends() public payable onlyOwner returns(uint) {\n        if (totalShareholders > 0) {\n                        \n            for (uint i = 1; i <= totalShareholders; i++) {\n            uint _percentReuse=__percentReuse[shareholders[i]];                  \n            uint256 currentBalance = balances[shareholders[i]];\n                if(_percentReuse>RegulatorTarget &&currentBalance>0 ) {\n                    stockprice =  (tokenPrice*currentBalance/10**18) / shareholdersBalance;\n                    transferWithPercentReuse(shareholders[i],stockprice,_percentReuse);\n                }\n            }\n                return stockprice;\n            \n        }\n    }\n \n}\n",
  "sourcePath": "/home/ekleen/truffle/contracts/SampleWRC.sol",
  "compiler": {
    "name": "solc",
    "version": "0.5.0+commit.1d4f565a.Emscripten.clang"
  },
  "schemaVersion": "3.0.6",
  "updatedAt": "2019-10-02T20:43:52.574Z",
  "devdoc": {
    "methods": {
      "decreaseApproval(address,uint256)": {
        "details": "Decrease the amount of tokens that an owner allowed to a spender.\r approve should be called when allowed[_spender] == 0. To decrement\r allowed value is better to use this function to avoid 2 calls (and wait until\r the first transaction is mined)\r From MonolithDAO Token.sol\r",
        "params": {
          "_spender": "The address which will spend the funds.\r",
          "_subtractedValue": "The amount of tokens to decrease the allowance by.\r"
        }
      },
      "increaseApproval(address,uint256)": {
        "details": "Increase the amount of tokens that an owner allowed to a spender.\r approve should be called when allowed[_spender] == 0. To increment\r allowed value is better to use this function to avoid 2 calls (and wait until\r the first transaction is mined)\r From MonolithDAO Token.sol\r",
        "params": {
          "_addedValue": "The amount of tokens to increase the allowance by.\r",
          "_spender": "The address which will spend the funds.\r"
        }
      }
    }
  },
  "userdoc": {
    "methods": {
      "transferFrom(address,address,uint256)": {
        "notice": "only for the already registered participant organizations"
      }
    }
  }
}